:020000040800F2
:10000000002800207D0700080D07000813070008DE
:10001000190700081F070008250700080000000056
:100020000000000000000000000000002B07000896
:100030003707000800000000430700084F070008CA
:10004000C5070008C5070008C5070008C507000860
:10005000C5070008C5070008C5070008C507000850
:10006000C5070008C5070008C5070008C507000840
:10007000C5070008C5070008C5070008C507000830
:10008000C5070008C5070008C5070008C507000820
:10009000C5070008C5070008C5070008C507000810
:1000A000C5070008C5070008C5070008C507000800
:1000B0005D070008C507000800000000C50700082C
:1000C000C50700080000000000000000C507000888
:1000D00000000000C5070008C50700080000000078
:1000E000C5070008C5070008C50700080000000094
:1000F0000000000000000000000000000000000000
:0C01000000000000000000005FF808F1A3
:10010C0010B5054C237833B9044B13B10448AFF345
:10011C0000800123237010BD24000020000000008B
:10012C00BC1D000808B5034B1BB103490348AFF3D2
:10013C00008008BD0000000028000020BC1D000845
:10014C0080B500AF00F03AFB00F00AF800F090F830
:10015C0000F042F8014801F06BFAFEE74400002081
:10016C0080B590B000AF07F1180328220021184683
:10017C0001F016FE3B1D00221A605A609A60DA608C
:10018C001A610223BB610123BB621023FB620023B3
:10019C007B6307F11803184600F012FE0346002B90
:1001AC0001D000F051FA0F237B600023BB600023C9
:1001BC00FB6000233B6100237B613B1D0021184643
:1001CC0001F07EF80346002B01D000F03DFA00BF91
:1001DC004037BD4680BD000080B586B000AF07F14A
:1001EC00080300221A605A609A60DA603B460022CB
:1001FC001A605A601D4B4FF080421A601B4B41F63F
:10020C003F725A60194B00229A60184B0922DA602F
:10021C00164B00221A61154B00229A61134801F00B
:10022C00B7F90346002B01D000F00EFA4FF48053BF
:10023C00BB6007F1080319460C4801F04DFB03465F
:10024C00002B01D000F000FA00233B6000237B6000
:10025C003B461946054801F015FD0346002B01D01D
:10026C0000F0F2F900BF1837BD4680BD44000020F5
:10027C0080B586B000AF07F1080300221A605A60FF
:10028C009A60DA60214B9B69204A43F00403936126
:10029C001E4B9B6903F004037B607B681B4B9B69C3
:1002AC001A4A43F008039361184B9B6903F0080347
:1002BC003B603B6800224FF47C71154800F068FDF0
:1002CC0000227F21134800F063FD4FF47C73BB6068
:1002DC000123FB6000233B6102237B6107F10803D0
:1002EC0019460B4800F0DAFB7F23BB600123FB604F
:1002FC0000233B6102237B6107F108031946054883
:10030C0000F0CCFB00BF1837BD4680BD001002408A
:10031C0000080140000C014080B582B000AF78604D
:10032C0000220121594800F033FD002202215748D8
:10033C0000F02EFD00220421544800F029FD00227B
:10034C000821524800F024FD002210214F4800F0F3
:10035C001FFD002220214D4800F01AFD00224021F3
:10036C004A4800F015FD7B68092B00F2898001A238
:10037C0052F823F0A9030008B5030008E9030008AC
:10038C00FF03000815040008350400084B0400089E
:10039C00570400088D040008810400080122402144
:1003AC003A4800F0F5FC6CE001220121374800F0DE
:1003BC00EFFC01220821354800F0EAFC0122102153
:1003CC00324800F0E5FC01222021304800F0E0FC2E
:1003DC00012240212D4800F0DBFC52E001220421D7
:1003EC002A4800F0D5FC01222021284800F0D0FC3E
:1003FC0047E001222021254800F0CAFC01221021EF
:10040C00224800F0C5FC3CE0012201211F4800F00D
:10041C00BFFC012208211D4800F0BAFC012210216A
:10042C001A4800F0B5FC2CE001220221174800F01C
:10043C00AFFC01221021154800F0AAFC21E001229A
:10044C000221124800F0A4FC1BE0012208210F48F5
:10045C0000F09EFC012210210C4800F099FC0122B6
:10046C0020210A4800F094FC01224021074800F0AA
:10047C008FFC06E001221021044800F089FC00E00A
:10048C0000BF00BF0837BD4680BD00BF000C014057
:10049C0080B582B000AF78607B68032B7AD801A25C
:1004AC0052F823F0C1040008F904000831050008D3
:1004BC006905000800224021394800F069FC01223E
:1004CC008021374800F064FC01224FF480713448DD
:1004DC0000F05EFC01224FF40071314800F058FC32
:1004EC00304B1B681846FFF717FF54E001224021E0
:1004FC002B4800F04DFC00228021294800F048FCDC
:10050C0001224FF48071264800F042FC01224FF486
:10051C000071234800F03CFC224B5B681846FFF747
:10052C00FBFE38E0012240211D4800F031FC012285
:10053C0080211B4800F02CFC00224FF480711848DD
:10054C0000F026FC01224FF40071154800F020FC4D
:10055C00144B9B681846FFF7DFFE1CE0012240217C
:10056C000F4800F015FC012280210D4800F010FC12
:10057C0001224FF480710A4800F00AFC00224FF46B
:10058C000071074800F004FC064BDB681846FFF7C7
:10059C00C3FE00E000BF00BF0837BD4680BD00BFF2
:1005AC00000801400800002080B582B000AF7860E0
:1005BC00214B1B68002B3BDD1F4B1B68013B1E4A6C
:1005CC0013601D4B1B68002B32D11B4B64221A602D
:1005DC001A4B1B68032B07DC184B1B685A1C17495A
:1005EC000A601846FFF754FF144B1B68042B02D10A
:1005FC00124B00221A60124B1B68002B02D0012BED
:10060C0006D00BE0002210210E4800F0C1FB05E0E3
:10061C00012210210B4800F0BBFB00BF084B1B68EC
:10062C00002B0CBF01230023DBB21A46044B1A60CB
:10063C0000BF0837BD4680BD0000002040000020F0
:10064C00040000200008014080B400AF72B600BF67
:10065C00FEE7000080B485B000AF154B9B69144ACF
:10066C0043F001039361124B9B6903F00103BB60E0
:10067C00BB680F4BDB690E4A43F08053D3610C4BC4
:10068C00DB6903F080537B607B680A4B5B68FB6023
:10069C00FB6823F0E063FB60FB6843F08063FB6066
:1006AC00044AFB68536000BF1437BD4680BC7047DA
:1006BC00001002400000014080B584B000AF7860AB
:1006CC007B681B68B3F1804F13D10C4BDB690B4A71
:1006DC0043F00103D361094BDB6903F00103FB60B9
:1006EC00FB68002200211C2000F0A1F91C2000F066
:1006FC00BAF900BF1037BD4680BD00BF00100240E4
:10070C0080B400AFFEE780B400AFFEE780B400AF6A
:10071C00FEE780B400AFFEE780B400AFFEE780B424
:10072C0000AF00BFBD4680BC704780B400AF00BFB7
:10073C00BD4680BC704780B400AF00BFBD4680BCD6
:10074C00704780B500AF00F07FF800BF80BD00009F
:10075C0080B500AF024800F0B7FF00BF80BD00BFFE
:10076C004400002080B400AF00BFBD4680BC704781
:10077C000C480D490D4A002302E0D458C4500433F0
:10078C00C4188C42F9D30A4A0A4C002301E01360C6
:10079C000432A242FBD3FFF7E5FF01F0DDFAFFF7CD
:1007AC00CFFC70470000002024000020FC1D000836
:1007BC002400002090000020FEE7000080B500AF70
:1007CC00084B1B68074A43F010031360032000F02A
:1007DC0023F90F2000F008F8FFF73CFF0023184620
:1007EC0080BD00BF0020024080B582B000AF7860B1
:1007FC00124B1A68124B1B7819464FF47A73B3FBE1
:10080C00F1F3B2FBF3F3184600F03BF90346002B6F
:10081C0001D001230EE07B680F2B0AD800227968E7
:10082C004FF0FF3000F003F9064A7B681360002399
:10083C0000E0012318460837BD4680BD1800002093
:10084C00200000201C00002080B400AF054B1B785A
:10085C001A46054B1B681344034A136000BFBD4680
:10086C0080BC7047200000208C00002080B400AFBA
:10087C00024B1B681846BD4680BC70478C0000209C
:10088C0080B485B000AF78607B6803F00703FB6031
:10089C000C4BDB68BB60BA684FF6FF031340BB60C0
:1008AC00FB681A02BB68134343F0BF6343F4003385
:1008BC00BB60044ABB68D36000BF1437BD4680BC24
:1008CC00704700BF00ED00E080B400AF044BDB6864
:1008DC001B0A03F007031846BD4680BC704700BFD7
:1008EC0000ED00E080B483B000AF0346FB7197F9D4
:1008FC000730002B0BDBFB7903F01F02064997F93D
:10090C0007305B09012000FA02F241F8232000BFF6
:10091C000C37BD4680BC704700E100E080B483B06A
:10092C0000AF03463960FB7197F90730002B0ADBE7
:10093C003B68DAB20C4997F907301201D2B20B447A
:10094C0083F800230AE03B68DAB20849FB7903F02C
:10095C000F03043B1201D2B20B441A7600BF0C37C2
:10096C00BD4680BC704700BF00E100E000ED00E038
:10097C0080B489B000AFF860B9607A60FB6803F0AE
:10098C000703FB61FB69C3F10703042B28BF042396
:10099C00BB61FB690433062B02D9FB69033B00E006
:1009AC0000237B614FF0FF32BB6902FA03F3DA4399
:1009BC00BB681A407B699A404FF0FF317B6901FAA2
:1009CC0003F3D9437B680B40134318462437BD46C9
:1009DC0080BC704780B582B000AF78607B68013B0B
:1009EC00B3F1807F01D301230FE00A4A7B68013BFE
:1009FC0053600F214FF0FF30FFF790FF054B0022A3
:100A0C009A60044B07221A60002318460837BD462B
:100A1C0080BD00BF10E000E080B582B000AF786010
:100A2C007868FFF72DFF00BF0837BD4680BD80B545
:100A3C0086B000AF0346B9607A60FB7300237B611C
:100A4C00FFF742FF78617A68B9687869FFF790FF21
:100A5C00024697F90F3011461846FFF75FFF00BFAB
:100A6C001837BD4680BD80B582B000AF0346FB7120
:100A7C0097F907301846FFF735FF00BF0837BD461A
:100A8C0080BD80B582B000AF78607868FFF7A2FFB8
:100A9C00034618460837BD4680BD000080B48BB0B5
:100AAC0000AF7860396000237B6200233B6248E131
:100ABC0001227B6A02FA03F3FB613B681B68FA694B
:100ACC001340BB61BA69FB699A4240F037813B68BD
:100ADC005B68A34A93425ED0A14A934275D8A14A5F
:100AEC00934258D09F4A93426FD89F4A934252D018
:100AFC009D4A934269D89D4A93424CD09B4A93425B
:100B0C0063D89B4A934246D0994A93425DD8122BA4
:100B1C002AD8122B59D801A252F823F0A30B0008A3
:100B2C007D0B00088F0B0008D10B0008D70B0008B9
:100B3C00D70B0008D70B0008D70B0008D70B000801
:100B4C00D70B0008D70B0008D70B0008D70B0008F1
:100B5C00D70B0008D70B0008D70B0008D70B0008E1
:100B6C00850B0008990B0008824A934213D02CE0A5
:100B7C003B68DB683B6229E03B68DB6804333B6223
:100B8C0024E03B68DB6808333B621FE03B68DB68B2
:100B9C000C333B621AE03B689B68002B02D10423A8
:100BAC003B6213E03B689B68012B05D108233B6239
:100BBC007B68FA691A6109E008233B627B68FA6971
:100BCC005A6103E000233B6200E000BFBB69FF2BCE
:100BDC0001D87B6801E07B6804337B61BB69FF2B28
:100BEC0002D87B6A9B0002E07B6A083B9B003B615E
:100BFC007B691A680F213B6901FA03F3DB431A4046
:100C0C00396A3B6901FA03F31A437B691A603B6842
:100C1C005B6803F08053002B00F09080564B9B696F
:100C2C00554A43F001039361534B9B6903F0010355
:100C3C00BB60BB68514A7B6A9B08023352F8233075
:100C4C00FB607B6A03F003039B000F2202FA03F3A1
:100C5C00DB43FA681340FB607B68494A93420DD032
:100C6C007B68484A934207D07B68474A934201D13C
:100C7C00022304E0032302E0012300E000237A6A4C
:100C8C0002F0030292009340FA681343FB603B4965
:100C9C007B6A9B080233FA6841F823203B685B6847
:100CAC0003F48033002B06D0384B1A683749BB69E4
:100CBC0013430B6006E0354B1A68BB69DB433349C1
:100CCC0013400B603B685B6803F40033002B06D0C9
:100CDC002E4B5A682D49BB6913434B6006E02B4BD6
:100CEC005A68BB69DB43294913404B603B685B681E
:100CFC0003F48013002B06D0244B9A682349BB695C
:100D0C0013438B6006E0214B9A68BB69DB431F4998
:100D1C0013408B603B685B6803F40013002B06D018
:100D2C001A4BDA681949BB691343CB6006E0174BC1
:100D3C00DA68BB69DB4315491340CB607B6A01332E
:100D4C007B623B681A687B6A22FA03F3002B7FF400
:100D5C00AFAE00BF00BF2C37BD4680BC704700BF94
:100D6C000000321000003110000022100000211091
:100D7C000000121000001110001002400000014091
:100D8C0000080140000C014000100140000401402B
:100D9C0080B483B000AF78600B467B8013467B70C9
:100DAC007B78002B03D07A887B681A6103E07B8800
:100DBC001A047B681A6100BF0C37BD4680BC7047B3
:100DCC0080B586B000AF78607B68002B01D1012321
:100DDC006CE27B681B6803F00103002B00F087803A
:100DEC00924B5B6803F00C03042B0CD08F4B5B68AD
:100DFC0003F00C03082B12D18C4B5B6803F480338B
:100E0C00B3F5803F0BD1894B1B6803F40033002BE7
:100E1C006CD07B685B68002B68D1012346E27B6851
:100E2C005B68B3F5803F06D1804B1B687F4A43F467
:100E3C00803313602EE07B685B68002B0CD17B4BFE
:100E4C001B687A4A23F480331360784B1B68774A0B
:100E5C0023F4802313601DE07B685B68B3F5A02F3F
:100E6C000CD1724B1B68714A43F4802313606F4B97
:100E7C001B686E4A43F4803313600BE06B4B1B68AA
:100E8C006A4A23F480331360684B1B68674A23F467
:100E9C00802313607B685B68002B13D0FFF7E6FCA4
:100EAC00386108E0FFF7E2FC02463B69D31A642B79
:100EBC0001D90323FAE15D4B1B6803F40033002BCB
:100ECC00F0D014E0FFF7D2FC386108E0FFF7CEFC5D
:100EDC0002463B69D31A642B01D90323E6E1534B39
:100EEC001B6803F40033002BF0D100E000BF7B68DB
:100EFC001B6803F00203002B63D04C4B5B6803F0C0
:100F0C000C03002B0BD0494B5B6803F00C03082B34
:100F1C001CD1464B5B6803F48033002B16D1434B3A
:100F2C001B6803F00203002B05D07B681B69012BA7
:100F3C0001D00123BAE13D4B1B6823F0F8027B681A
:100F4C005B69DB00394913430B603AE07B681B6932
:100F5C00002B20D0364B01221A60FFF787FC38613A
:100F6C0008E0FFF783FC02463B69D31A022B01D938
:100F7C0003239BE12D4B1B6803F00203002BF0D0E5
:100F8C002A4B1B6823F0F8027B685B69DB0027495E
:100F9C0013430B6015E0264B00221A60FFF766FC2A
:100FAC00386108E0FFF762FC02463B69D31A022B5A
:100FBC0001D903237AE11D4B1B6803F00203002BBC
:100FCC00F0D17B681B6803F00803002B3AD07B68D8
:100FDC009B69002B19D0174B01221A60FFF746FCB6
:100FEC00386108E0FFF742FC02463B69D31A022B3A
:100FFC0001D903235AE10D4B5B6A03F00203002B6A
:10100C00F0D0012000F0A6FA1CE00A4B00221A6076
:10101C00FFF72CFC38610FE0FFF728FC02463B6918
:10102C00D31A022B08D9032340E100BF0010024061
:10103C0000004242800442429E4B5B6A03F0020372
:10104C00002BE9D17B681B6803F00403002B00F034
:10105C00A6800023FB75974BDB6903F08053002BB4
:10106C000DD1944BDB69934A43F08053D361914B80
:10107C00DB6903F08053BB60BB680123FB758E4BAF
:10108C001B6803F48073002B18D18B4B1B688A4AA6
:10109C0043F480731360FFF7E9FB386108E0FFF756
:1010AC00E5FB02463B69D31A642B01D90323FDE00F
:1010BC00814B1B6803F48073002BF0D07B68DB68DA
:1010CC00012B06D17B4B1B6A7A4A43F00103136256
:1010DC002DE07B68DB68002B0CD1764B1B6A754AC4
:1010EC0023F001031362734B1B6A724A23F004034F
:1010FC0013621CE07B68DB68052B0CD16D4B1B6A03
:10110C006C4A43F0040313626A4B1B6A694A43F04E
:10111C00010313620BE0674B1B6A664A23F0010361
:10112C001362644B1B6A634A23F0040313627B68EB
:10113C00DB68002B15D0FFF799FB38610AE0FFF74D
:10114C0095FB02463B69D31A41F28832934201D98E
:10115C000323ABE0574B1B6A03F00203002BEED0CA
:10116C0014E0FFF783FB38610AE0FFF77FFB0246D0
:10117C003B69D31A41F28832934201D9032395E09B
:10118C004C4B1B6A03F00203002BEED1FB7D012BB1
:10119C0005D1484BDB69474A23F08053D3617B6808
:1011AC00DB69002B00F08180424B5B6803F00C0381
:1011BC00082B61D07B68DB69022B46D13F4B0022A8
:1011CC001A60FFF753FB386108E0FFF74FFB02464C
:1011DC003B69D31A022B01D9032367E0354B1B68FB
:1011EC0003F00073002BF0D17B681B6AB3F5803FD2
:1011FC0008D1304B5B6823F400327B689B682D4927
:10120C0013434B602B4B5B6823F474127B68196A95
:10121C007B685B6A0B43274913434B60274B0122C6
:10122C001A60FFF723FB386108E0FFF71FFB02464B
:10123C003B69D31A022B01D9032337E01D4B1B68E2
:10124C0003F00073002BF0D02FE01C4B00221A602F
:10125C00FFF70CFB386108E0FFF708FB02463B691F
:10126C00D31A022B01D9032320E0124B1B6803F085
:10127C000073002BF0D118E07B68DB69012B01D1E6
:10128C00012313E00B4B5B68FB60FB6803F48032BB
:10129C007B681B6A9A4206D1FB6803F470127B6868
:1012AC005B6A9A4201D0012300E0002318461837EC
:1012BC00BD4680BD001002400070004060004242FC
:1012CC0080B584B000AF786039607B68002B01D1A9
:1012DC000123D0E06A4B1B6803F007033A689A427B
:1012EC0010D9674B1B6823F0070265493B68134311
:1012FC000B60634B1B6803F007033A689A4201D0FA
:10130C000123B8E07B681B6803F00203002B20D09C
:10131C007B681B6803F00403002B05D0594B5B68FA
:10132C00584A43F4E06353607B681B6803F008037E
:10133C00002B05D0534B5B68524A43F46053536007
:10134C00504B5B6823F0F0027B689B684D4913435C
:10135C004B607B681B6803F00103002B40D07B685B
:10136C005B68012B07D1474B1B6803F40033002B40
:10137C0015D101237FE07B685B68022B07D1414BC1
:10138C001B6803F00073002B09D1012373E03D4B64
:10139C001B6803F00203002B01D101236BE0394BD6
:1013AC005B6823F003027B685B68364913434B6030
:1013BC00FFF75CFAF8600AE0FFF758FA0246FB68A0
:1013CC00D31A41F28832934201D9032353E02D4BB7
:1013DC005B6803F00C027B685B689B009A42EBD164
:1013EC00274B1B6803F007033A689A4210D2244B30
:1013FC001B6823F0070222493B6813430B60204B08
:10140C001B6803F007033A689A4201D0012332E0CB
:10141C007B681B6803F00403002B08D0194B5B6836
:10142C0023F4E0627B68DB68164913434B607B68EE
:10143C001B6803F00803002B09D0124B5B6823F4E4
:10144C0060527B681B69DB000E4913434B6000F054
:10145C0021F802460B4B5B681B0903F00F030A498A
:10146C00CB5C22FA03F3094A1360094B1B6818463C
:10147C00FFF7BAF9002318461037BD4680BD00BFF0
:10148C000020024000100240E41D0008180000205B
:10149C001C00002090B48AB000AF2A4B3C1D0FCB2F
:1014AC0084E80F0040F201233B800023FB61002302
:1014BC00BB6100237B6200237B6100233B62224BD8
:1014CC005B68FB61FB6903F00C03042B02D0082B57
:1014DC0003D02DE01D4B3B622DE0FB699B0C03F010
:1014EC000F0307F12802134413F8243C7B61FB69BA
:1014FC0003F48033002B13D0134B5B685B0C03F0AD
:10150C00010307F12802134413F8283CBB617B69E3
:10151C000E4A02FB03F2BB69B2FBF3F37B6204E0FD
:10152C007B690B4A02FB03F37B627B6A3B6202E042
:10153C00064B3B6200BF3B6A18462837BD4690BC41
:10154C00704700BFD41D00080010024000127A0042
:10155C0000093D0080B485B000AF78600A4B1B6871
:10156C000A4AA2FB03235B0A7A6802FB03F3FB60C3
:10157C0000BFFB685A1EFA60002BF9D100BF00BFF8
:10158C001437BD4680BC704718000020D34D621044
:10159C0080B582B000AF78607B68002B01D101234D
:1015AC0041E07B6893F83D30DBB2002B06D17B68C1
:1015BC00002283F83C207868FFF77EF87B680222D3
:1015CC0083F83D207B681A687B6804331946104603
:1015DC0000F06AFA7B68012283F846207B680122BE
:1015EC0083F83E207B68012283F83F207B68012230
:1015FC0083F840207B68012283F841207B6801221C
:10160C0083F842207B68012283F843207B68012207
:10161C0083F844207B68012283F845207B680122F3
:10162C0083F83D20002318460837BD4680BD0000D6
:10163C0080B485B000AF78607B6893F83D30DBB246
:10164C00012B01D0012335E07B68022283F83D2079
:10165C007B681B68DA687B681B6842F00102DA6001
:10166C007B681B68164A934209D07B681B68B3F1F0
:10167C00804F04D07B681B68124A934211D17B685F
:10168C001B689B6803F00703FB60FB68062B10D0FC
:10169C007B681B681A687B681B6842F001021A6041
:1016AC0007E07B681B681A687B681B6842F00102C4
:1016BC001A60002318461437BD4680BC704700BF23
:1016CC00002C01400004004080B582B000AF78606F
:1016DC007B681B681B6903F00203022B22D17B6819
:1016EC001B68DB6803F00203022B1BD17B681B68B1
:1016FC006FF002021A617B6801221A777B681B6803
:10170C009B6903F00303002B03D0786800F0B1F958
:10171C0005E0786800F0A4F9786800F0B3F97B680C
:10172C0000221A777B681B681B6903F00403042BE7
:10173C0022D17B681B68DB6803F00403042B1BD1EC
:10174C007B681B686FF004021A617B6802221A77AF
:10175C007B681B689B6903F44073002B03D078688B
:10176C0000F087F905E0786800F07AF9786800F005
:10177C0089F97B6800221A777B681B681B6903F068
:10178C000803082B22D17B681B68DB6803F0080375
:10179C00082B1BD17B681B686FF008021A617B68F1
:1017AC0004221A777B681B68DB6903F00303002BA8
:1017BC0003D0786800F05DF905E0786800F050F926
:1017CC00786800F05FF97B6800221A777B681B68E9
:1017DC001B6903F01003102B22D17B681B68DB689C
:1017EC0003F01003102B1BD17B681B686FF01002E9
:1017FC001A617B6808221A777B681B68DB6903F423
:10180C004073002B03D0786800F033F905E078685A
:10181C0000F026F9786800F035F97B6800221A7719
:10182C007B681B681B6903F00103012B0ED17B68DD
:10183C001B68DB6803F00103012B07D17B681B6875
:10184C006FF001021A617868FEF7AEFE7B681B68C8
:10185C001B6903F08003802B0ED17B681B68DB684F
:10186C0003F08003802B07D17B681B686FF080022C
:10187C001A61786800F067FA7B681B681B6903F0D3
:10188C004003402B0ED17B681B68DB6803F04003E0
:10189C00402B07D17B681B686FF040021A61786897
:1018AC0000F0F9F87B681B681B6903F02003202B00
:1018BC000ED17B681B68DB6803F02003202B07D15B
:1018CC007B681B686FF020021A61786800F032FAAE
:1018DC0000BF0837BD4680BD80B584B000AF7860CE
:1018EC0039607B6893F83C30012B01D10223B3E0C3
:1018FC007B68012283F83C207B68022283F83D2020
:10190C007B681B689B68FB60FB6823F07703FB60BC
:10191C00FB6823F47F43FB607B681B68FA689A6062
:10192C003B681B68B3F5005F3ED0B3F5005F00F277
:10193C008780B3F5805F00F08580B3F5805F7FD83A
:10194C00702B1AD0702B7BD8602B50D0602B77D893
:10195C00502B3CD0502B73D8402B58D0402B6FD8E9
:10196C00302B64D0302B6BD8202B60D0202B67D839
:10197C00002B5CD0102B5AD062E07B6818683B6857
:10198C0099683B685A683B68DB6800F05CF97B68D7
:10199C001B689B68FB60FB6843F07703FB607B680C
:1019AC001B68FA689A604EE07B6818683B68996817
:1019BC003B685A683B68DB6800F045F97B681B683C
:1019CC009A687B681B6842F480429A603BE07B68B3
:1019DC0018683B6859683B68DB681A4600F0BCF82D
:1019EC007B681B685021184600F013F92BE07B68CC
:1019FC0018683B6859683B68DB681A4600F0DAF8EF
:101A0C007B681B686021184600F003F91BE07B68BB
:101A1C0018683B6859683B68DB681A4600F09CF80C
:101A2C007B681B684021184600F0F3F80BE07B68DC
:101A3C001A683B681B681946104600F0EAF802E089
:101A4C0000BF00E000BF7B68012283F83D207B686B
:101A5C00002283F83C20002318461037BD4680BD79
:101A6C0080B483B000AF786000BF0C37BD4680BC3B
:101A7C00704780B483B000AF786000BF0C37BD46B0
:101A8C0080BC704780B483B000AF786000BF0C3767
:101A9C00BD4680BC704780B483B000AF786000BF97
:101AAC000C37BD4680BC704780B485B000AF786001
:101ABC0039607B681B68FB607B68254A934207D0C2
:101ACC007B68B3F1804F03D07B68224A934208D1E4
:101ADC00FB6823F07003FB603B685B68FA68134398
:101AEC00FB607B681A4A934207D07B68B3F1804F46
:101AFC0003D07B68174A934208D1FB6823F44073E8
:101B0C00FB603B68DB68FA681343FB60FB6823F0FF
:101B1C0080023B685B691343FB607B68FA681A6060
:101B2C003B689A687B68DA623B681A687B689A62E1
:101B3C007B68074A934203D13B681A697B681A6336
:101B4C007B6801225A6100BF1437BD4680BC7047C8
:101B5C00002C01400004004080B487B000AFF86056
:101B6C00B9607A60FB681B6A7B61FB681B6A23F0B7
:101B7C000102FB681A62FB689B693B613B6923F0BD
:101B8C00F0033B617B681B013A6913433B617B6942
:101B9C0023F00A037B617A69BB6813437B61FB68A2
:101BAC003A699A61FB687A691A6200BF1C37BD46B4
:101BBC0080BC704780B487B000AFF860B9607A60C1
:101BCC00FB681B6A23F01002FB681A62FB689B69B6
:101BDC007B61FB681B6A3B617B6923F470437B610F
:101BEC007B681B037A6913437B613B6923F0A00379
:101BFC003B61BB681B013A6913433B61FB687A6923
:101C0C009A61FB683A691A6200BF1C37BD4680BCFA
:101C1C00704780B485B000AF786039607B689B6892
:101C2C00FB60FB6823F07003FB603A68FB681343AE
:101C3C0043F00703FB607B68FA689A6000BF1437B7
:101C4C00BD4680BC704780B487B000AFF860B96007
:101C5C007A603B60FB689B687B617B6923F47F4304
:101C6C007B613B681A027B681A43BB6813437A6931
:101C7C0013437B61FB687A699A6000BF1C37BD46D1
:101C8C0080BC704780B485B000AF786039607B68E9
:101C9C0093F83C30012B01D1022341E07B680122F7
:101CAC0083F83C207B68022283F83D207B681B680C
:101CBC005B68FB607B681B689B68BB60FB6823F000
:101CCC007003FB603B681B68FA681343FB607B681E
:101CDC001B68FA685A607B681B68144A934209D0E7
:101CEC007B681B68B3F1804F04D07B681B68104A7B
:101CFC0093420CD1BB6823F08003BB603B685B68EC
:101D0C00BA681343BB607B681B68BA689A607B68CF
:101D1C00012283F83D207B68002283F83C200023BD
:101D2C0018461437BD4680BC704700BF002C0140DC
:101D3C000004004080B483B000AF786000BF0C3763
:101D4C00BD4680BC704780B483B000AF786000BFE4
:101D5C000C37BD4680BC704770B500260C4D0D4C41
:101D6C00641BA410A64209D100F022F800260A4DEB
:101D7C000A4C641BA410A64205D170BD55F8043B57
:101D8C0098470136EEE755F8043B98470136F2E7E1
:101D9C00F41D0008F41D0008F41D0008F81D0008CF
:101DAC0003460244934200D1704703F8011BF9E744
:101DBC00F8B500BFF8BC08BC9E467047F8B500BF2C
:081DCC00F8BC08BC9E467047FC
:101DD40002030405060708090A0B0C0D0E0F101068
:101DE40000000000000000000102030406070809C7
:041DF40031010008B1
:041DF8000D010008D1
:101DFC006400000001000000000000000100000071
:101E0C0002000000030000000024F4001000000099
:041E1C0001000000C1
:040000050800077D6B
:00000001FF
